{
    "contractName": "ICO",
    "abi": [
        {
            "inputs": [],
            "name": "buy",
            "outputs": [],
            "stateMutability": "payable",
            "type": "function"
        },
        {
            "inputs": [],
            "name": "current_supply",
            "outputs": [
                {
                    "internalType": "uint256",
                    "name": "",
                    "type": "uint256"
                }
            ],
            "stateMutability": "view",
            "type": "function"
        },
        {
            "inputs": [
                {
                    "internalType": "address",
                    "name": "",
                    "type": "address"
                }
            ],
            "name": "eth_balances",
            "outputs": [
                {
                    "internalType": "uint256",
                    "name": "",
                    "type": "uint256"
                }
            ],
            "stateMutability": "view",
            "type": "function"
        },
        {
            "inputs": [],
            "name": "min_purchase",
            "outputs": [
                {
                    "internalType": "uint256",
                    "name": "",
                    "type": "uint256"
                }
            ],
            "stateMutability": "view",
            "type": "function"
        },
        {
            "inputs": [],
            "name": "rate",
            "outputs": [
                {
                    "internalType": "uint256",
                    "name": "",
                    "type": "uint256"
                }
            ],
            "stateMutability": "view",
            "type": "function"
        },
        {
            "inputs": [],
            "name": "sell",
            "outputs": [],
            "stateMutability": "payable",
            "type": "function"
        },
        {
            "inputs": [],
            "name": "total_supply",
            "outputs": [
                {
                    "internalType": "uint256",
                    "name": "",
                    "type": "uint256"
                }
            ],
            "stateMutability": "view",
            "type": "function"
        }
    ],
    "bytecode": "60806040526b033b2e3c9fd0803ce80000006000556103e86001556001600255600060035534801561003057600080fd5b506102b4806100406000396000f3fe6080604052600436106100705760003560e01c8063457100741161004e57806345710074146100e05780636aea5f1b146100ea5780636b5a1c7214610100578063a6f2ae3a1461011657600080fd5b806311c0d2e2146100755780632c4e722e146100b45780633940e9ee146100ca575b600080fd5b34801561008157600080fd5b506100a26100903660046101f5565b60046020526000908152604090205481565b60405190815260200160405180910390f35b3480156100c057600080fd5b506100a260015481565b3480156100d657600080fd5b506100a260005481565b6100e861011e565b005b3480156100f657600080fd5b506100a260035481565b34801561010c57600080fd5b506100a260025481565b6100e8610178565b33600090815260046020526040902054341061013957600080fd5b336000908152600460205260408120805434929061015890849061023b565b9250508190555034600360008282546101719190610254565b9091555050565b60025434101561018757600080fd5b6000600154346101979190610267565b9050600054816003546101aa9190610254565b11156101b557600080fd5b33600090815260046020526040812080548392906101d4908490610254565b9250508190555080600360008282546101ed9190610254565b909155505050565b60006020828403121561020757600080fd5b81356001600160a01b038116811461021e57600080fd5b9392505050565b634e487b7160e01b600052601160045260246000fd5b8181038181111561024e5761024e610225565b92915050565b8082018082111561024e5761024e610225565b808202811582820484141761024e5761024e61022556fea26469706673582212201ad85bca8bc9c007afce6617d04f0ff2cb56efde85c19784fdb5324a91f0018264736f6c63430008130033",
    "sourcePath": "d:/Projects/cryptocurrency_demo/contract/ico.sol",
    "compiler": {
        "name": "solc",
        "version": "0.8.19+commit.7dd6d404"
    },
    "functionHashes": {
        "buy()": "a6f2ae3a",
        "current_supply()": "6aea5f1b",
        "eth_balances(address)": "11c0d2e2",
        "min_purchase()": "6b5a1c72",
        "rate()": "2c4e722e",
        "sell()": "45710074",
        "total_supply()": "3940e9ee"
    },
    "gasEstimates": {
        "creation": {
            "codeDepositCost": "138400",
            "executionCost": "71507",
            "totalCost": "209907"
        },
        "external": {
            "buy()": "infinite",
            "current_supply()": "2305",
            "eth_balances(address)": "2473",
            "min_purchase()": "2327",
            "rate()": "2306",
            "sell()": "infinite",
            "total_supply()": "2328"
        }
    }
}